:020000040800F2
:10000000080D0020A1010008ED12000825080008D5
:100010007910000805070008B91800080000000062
:10002000000000000000000000000000F1150008C2
:100030000707000800000000EF120008A9160008DA
:10004000BB010008BB010008BB010008BB010008A0
:10005000BB010008BB010008BB010008BB01000890
:10006000BB010008BB010008BB010008BB01000880
:10007000BB010008BB010008BB010008BB01000870
:10008000BB010008BB010008BB010008BB01000860
:10009000BB010008BB010008BB010008BB01000850
:1000A000BB010008BB010008BB010008BB01000840
:1000B000BB010008BB010008BB010008BB01000830
:1000C000BB010008BB010008BB010008BB01000820
:1000D000BB0100081D170008BB010008BB01000898
:1000E000BB010008BB010008BB010008BB01000800
:1000F000BB010008BB010008BB010008BB010008F0
:10010000BB010008BB010008BB010008BB010008DF
:10011000BB010008BB010008BB010008BB010008CF
:10012000BB010008BB010008BB010008BB010008BF
:10013000BB010008BB010008BB010008BB010008AF
:10014000BB010008BB010008BB010008BB0100089F
:10015000BB010008BB010008BB010008BB0100088F
:10016000BB010008BB010008BB010008BB0100087F
:10017000BB010008BB010008BB010008BB0100086F
:10018000BB010008BB010008DFF810D000F01AFA2C
:1001900000480047F5210008AFF30080080D00205B
:1001A0000648804706480047FEE7FEE7FEE7FEE711
:1001B000FEE7FEE7FEE7FEE7FEE7FEE7AD16000816
:1001C0008901000830B50B46014600202022012499
:1001D00009E021FA02F59D4205D303FA02F5491B15
:1001E00004FA02F52844151EA2F10102F1DC30BD2B
:1001F0002DE9F05F0546002092469B46884606465C
:10020000814640241BE0284641464746224600F0EE
:10021000FAF953465A46C01A914110D3114618466E
:10022000224600F0E1F92D1A67EB01084F462246FD
:100230000120002100F0D8F917EB00094E41201EE3
:10024000A4F10104DFDC484631462A464346BDE8B6
:10025000F09F2DE9FE4F804681EA0300C00F0C4657
:10026000009021F0004123F00045B8EB0200A941C5
:1002700005D24046214690461C460B46024623F0D6
:100280000040104347D0270DC7F30A00C3F30A51BB
:100290000290401A019040286BDAC3F3130040F437
:1002A000801B0098924620B10023D2EB030A63EB37
:1002B0000B0B01985946C0F14002504600F094F9EA
:1002C00006460D4650465946019A00F0ACF910EB2F
:1002D00008006141002487EA115284EAE7731A4357
:1002E00040D0009A62B3019A012A4FEA075215DC06
:1002F000001B61EB02014FF0004202EA0752CDE918
:100300000042001C41F5801132462B4600F0ACF94A
:1003100003B0BDE8F08F40462146F9E7001B61EBD2
:100320000201001C41F5801300185B412018A2F562
:10033000001747EB030140EAD570B6196D4111E093
:100340006D084FEA360645EAC0754FEA0752001BB2
:1003500061EB0201001C41F5801149084FEA3000B1
:100360000019514132462B4603B0BDE8F04F00F072
:100370006CB90098012240000023D0EB020263EB2D
:10038000E073009821464FEAE074B8EB000061EB9F
:100390000401E9E783F000435BE781F0004158E79F
:1003A0002DE9FE4F81EA030404F0004421F00041EE
:1003B00000944FF0000B23F0004350EA01045ED09C
:1003C00052EA03045BD0C3F30A54C1F30A552C4428
:1003D000A4F2F3340194A0FB0254C1F3130141F4DD
:1003E0008011C3F3130343F4801301FB024400FBA9
:1003F000034E840A970A44EA815447EA8357A4FBD0
:10040000076802958D0A05FB07854FEA932C04FBCC
:100410000C542705029D4FEA065847EA1637B5EBFC
:1004200008056EEB070C870E920E47EA811742EA29
:100430008312A7FB0201B6EB0B0164EB00042B0D4A
:1004400043EA0C335E1844EB1C50DA465146E7FB96
:100450000201C5F313044FEA0B3343EA14534FEA86
:100460000432019C43EA0603A4F10C040294009CAC
:10047000CDE900B400F0F8F803B0BDE8F08F00203B
:100480000146F9E72DE9F04D81EA030404F0004B41
:1004900021F0004514464FF0000A23F0004150EAD5
:1004A000050220D054EA01021DD0C5F30A570246C6
:1004B000C5F31303C1F31300C1F30A5640F48015CA
:1004C00043F48013A7EB0608101BD64608F2FD384C
:1004D00073EB050002D308F1010801E092185B41BB
:1004E000B8F1000F03DA00200146BDE8F08D0020CE
:1004F0004FF48011064684460EE0171B73EB050788
:1005000005D3121B63EB050306434CEA010C4908B3
:100510004FEA300092185B4150EA0107EDD152EAF0
:10052000030012D082EA040083EA0501084305D0E3
:10053000101BAB4106D20122002306E000224FF03F
:10054000004302E06FF0010253101AEB06004CEB7F
:10055000085110EB0A0041EB0B01BDE8F04D00F033
:1005600074B8C1F30A52C1F3130140F2FF3341F4EE
:1005700080119A4202DA00200146704740F233436C
:100580009A42A2F2334202DC524200F03CB800F040
:100590002BB8000030B5041E71F1000404DB4FF0ED
:1005A0000044404264EB0101141E73F1000405DBBA
:1005B0001C464FF00043524263EB0403994208BFCC
:1005C000904230BD064C074D06E0E06840F0010364
:1005D00094E8070098471034AC42F6D3FFF7D8FDF3
:1005E000503A0008703A0008202A04DB203A00FA4A
:1005F00002F1002070479140C2F1200320FA03F37A
:10060000194390407047202A04DB203A21FA02F077
:100610000021704721FA02F3D040C2F1200291403C
:10062000084319467047202A06DBCB17203A41FAC7
:1006300002F043EAE07306E041FA02F3D040C2F16F
:100640002002914008431946704710B5141E73F1FB
:10065000000408DA401C41F1000192185B411A4382
:1006600001D120F0010010BD2DE9F04D92469B46CE
:1006700011B1B1FA81F202E0B0FA80F22032904674
:10068000FFF7B2FF04460F4640EA0A0041EA0B01B9
:1006900053465A46084313D0114653EA010019D075
:1006A000C8F140025046FFF7AEFF05460E465046E1
:1006B00059464246FFF798FF084305D0012004E061
:1006C00020463946BDE8F08D0020054346EAE07635
:1006D0002C4337430A986305E40AA0EB0800002284
:1006E000FD0A44EA47540A3002D500200146E9E7F2
:1006F000010510196941DDE9084500196941BDE8A6
:10070000F04DA2E7FEE770470A484FF47A7100689F
:10071000B0FBF1F0401EB0F1807F0AD24FF0E02133
:100720004861054AF02082F8140D002088610720F6
:1007300008617047340000200FE000E002490860C3
:1007400008680028FCD170470C000020F0B5002399
:10075000012403270D6804FA03F21540954242D1A3
:10076000D0F800C05E0007FA06F52CEA050CC0F8C8
:1007700000C091F804C0D0F800E00CFA06FC4CEA86
:100780000E0CC0F800C091F804C0BCF1010F02D0FB
:10079000BCF1020F1FD1D0F808C02CEA050CC0F83C
:1007A00008C091F805C0D0F808E00CFA06FC4CEA45
:1007B0000E0CC0F808C0D0F804C02CEA020CC0F837
:1007C00004C0426891F806C00CFA03FC1FFA8CFCC6
:1007D00042EA0C024260C268AA43C260CA79C56894
:1007E000B2402A43C2605B1C102BB3D3F0BD4B0751
:1007F000DB0E9A40C90810B500EB8100016A0F2496
:100800009C40A1430162016A1143016210BD02468E
:10081000002012690A4200D00120704741837047CE
:1008200001837047FEE7016800E0491C0A78202A2E
:10083000FBD0092AF9D012F0FF0F016001D00B465E
:1008400003E0002070475B1C03601A782C2A08D054
:100850003B2A06D0202A04D0092A02D0002AF2D14D
:1008600004E000221A700268521C026008467047B9
:10087000FEB50D4600906846FFF7D5FF002852D020
:1008800000F052F88DF804006846FFF7CCFF00280E
:1008900049D000F049F88DF805006846FFF7C3FF1E
:1008A000002840D000F040F88DF806006846FFF7B9
:1008B000BAFF002837D000F037F800248DF8070081
:1008C000274601AE6846FFF7AEFF20B13119091D7A
:1008D00000F03CF808B930190771641CE4B2032C2D
:1008E000F0D39DF804100320032901D98DF80400EA
:1008F0009DF80510032901D98DF805009DF8061013
:10090000032901D98DF806009DF80710032901D9A4
:100910008DF8070001982860BDF80800A8809DF8B0
:100920000A00A8710120FEBD10B5014600206FF03D
:100930002F0305E000EB800003EB40001044491C4E
:100940000A78A2F13004092CF4D910BD00783128BE
:100950001BD0452819D0652817D0322817D0532826
:1009600015D0732813D0332813D0522811D07228F1
:100970000FD030280FD055280DD075280BD04E2819
:1009800009D06E2807D000207047012004E0022023
:1009900002E0032000E00020087001207047000002
:1009A00030B50D4C22782AB121B172B600220B4B22
:1009B000491E05E0002030BD9D5C8554521C92B25A
:1009C0008A4202DA9D5C002DF6D10021815421700B
:1009D00062B6012030BD000010000020A8000020F9
:1009E00070B51A4D40F225563146284600F0D2FE29
:1009F000002816D0284600F05BFFC4B231462846D6
:100A000000F08EFE0D2C0CD012490023104D4888AA
:100A10000A2C07D04F2816D248882A18401C488034
:100A2000147070BD0028FCD0094A0020503203E049
:100A30002C5C1454401C80B24C88A042F8D34888E7
:100A40001354012008704B8070BD0000001001405D
:100A500058000020100000201CB50121084600F0BD
:100A600047FC00208DF8040001218DF807108DF857
:100A70000500C803009069460148FFF767FE1CBDEA
:100A80000000024070B50D4D4FF400442146284649
:100A9000FFF7BDFE38B90A20FFF750FE2146284671
:100AA000FFF7B5FE08B1002070BD21462846FFF7CC
:100AB000AEFE0028F9D0012070BD00000000024009
:100AC0002DE9F041204C0021A089401E83B26089AD
:100AD000401E82B2084600F093F91C48018821F0BC
:100AE00040010180018841F400610180018841F0EA
:100AF000400101801649C5140D80A38813499EB298
:100B0000B4F80CC06389002208310F1D03FB0CF3FD
:100B100004E03E800C88A407FCD5521C9342F8D810
:100B20000A881206FCD40A49891E0D80018821F02A
:100B300040010180018821F400610180018841F0B9
:100B400040010180BDE8F081F8080020003C004031
:100B50001A0C024008B5002341F288310DE000BFB5
:100B6000ADF8003005E000BFBDF80020521CADF824
:100B70000020BDF800208A42F6D3401EF0D208BD06
:100B80002DE9F05F0023203A02F0FF0B284A82464D
:100B900089464FF400601C4619461080DFF894E047
:100BA000254EDEF8000026E00768DFF890C00BFB5A
:100BB0000272BCF80070BCF804C09D5C0022BFB299
:100BC0001FFA8CFC5FEAC57802D026F8147001E0A9
:100BD00026F814C0641C491CB0F804806D0889B262
:100BE000A4B2884501D1002103E0521C92B2082A28
:100BF000E8D35B1C9BB202899A42D5D8C288A9F17E
:100C0000010111448BB28188AAF10100084482B22B
:100C100074464946504600F0F3F820688188C08841
:100C2000BDE8F05F414389B2034800F097B9000086
:100C30001A0C02402C000020F8000020F8080020C8
:100C40007FB51E46094B05460C46187A13463246B8
:100C500048B107A1684600F05FFE6A462146284673
:100C600000F00CF87FBD03A1F4E70000F8080020B5
:100C7000252A640025302E2A640000002DE9F04169
:100C80001546884604460A4F0A4E08E0414620466B
:100C9000FFF776FF38686D1C8088204484B2708925
:100CA000A04202D92A78002AF0D1BDE8F0810000E4
:100CB0002C000020F808002070B514460C4A0B46A2
:100CC000A2F500651288002192B203E025F81120F8
:100CD000491C89B2A142F9D30119491E8AB21946A9
:100CE00000F08EF82146BDE87040024800F036B9A9
:100CF000F8080020F80000202DE9FC410121C8037C
:100D000000F002FB01210A2000F0F2FA234D062236
:100D100003212846FFF76BFD062205212846FFF731
:100D200066FD02248DF8044003208DF805000021A3
:100D30008DF8061008208DF80710009069462846A7
:100D4000FFF704FD2020009069462846FFF7FEFCCF
:100D500001208DF804008DF80540C402104F69464B
:100D600038460094FFF7F2FC650069463846009566
:100D7000FFF7ECFCA600694638460096FFF7E6FC54
:100D800029463846FFF74CFD0548183004803146A7
:100D90003846FFF743FDBDE8FC8100000004024037
:100DA000000C024010B5012186B0C80300F0ACFA77
:100DB0004FF44040ADF800004FF48270ADF80200EF
:100DC0000020ADF80800ADF80400ADF80C00ADF857
:100DD0000600ADF80E004FF400710720074CADF887
:100DE0000A10ADF810006946204600F0F7FA01211C
:100DF000204600F0E9FA06B010BD0000003C0040BB
:100E00002DE9F047804618484FF40065994616468C
:100E10000F4605802A2000F0D7F8144CA17B01EB87
:100E2000080080B200F0F2F8A07B304480B200F0FD
:100E3000EDF82B2000F0C8F8E07B384480B200F0D9
:100E4000E5F8E17B01EB090080B200F0DFF82C202F
:100E500000F0BAF8064801880906FCD40248801E52
:100E60000580BDE8F08700001A0C0240F808002059
:100E7000083C004001490860704700002C00002039
:100E80004FF478414FF4FC6201EA102102EA50125B
:100E9000C0F3C400114301430148416070470000A2
:100EA000F80800204FF478414FF4FC6201EA102169
:100EB00002EA5012C0F3C40011430143014801602B
:100EC00070470000F80800202DE9F0411D4C1E4A33
:100ED0004FF400686072A2F800800026F02538B157
:100EE00002280AD0502701281BD0032821D00EE069
:100EF000362000F069F8702003E0362000F064F836
:100F0000002000F091F8A673E6736581A5810F4873
:100F100001880906FCD40C49891EA1F80080BDE8AF
:100F2000F081362000F050F8A02000F07DF8A77383
:100F3000EAE7362000F048F8C02000F075F8A67304
:100F4000E773E2E7F80800201A0C0240083C004072
:100F50000149087270470000F8080020F0B5184AEF
:100F6000138823F040031380138843F40063138035
:100F7000138843F040031380124BD5141D80104C8E
:100F800000230834261D06E030F8137037802788C8
:100F9000BF07FCD55B1C8B42F6D320880006FCD42F
:100FA0000848801E0580108820F0400010801088BE
:100FB00020F400601080108840F040001080F0BDE8
:100FC000003C00401A0C02402DE9F0410D4C074650
:100FD00020880006FCD40C4E4FF48055294630463C
:100FE000FFF71CFC0748001D078020888007FCD500
:100FF00020880006FCD429463046BDE8F041FFF7C2
:101000000FBC0000083C0040000C0240054A010AE9
:101010001180111F0B889B07FCD510800888800762
:10102000FCD570470C3C004003490880081F01882C
:101030008907FCD5704700000C3C00407CB50121BD
:10104000042000F055F901208DF8040000218DF8EE
:1010500006108DF807004403064D8DF8051069460B
:1010600028460094FFF772FB21462846FFF7D6FB7F
:101070007CBD000000080240FEE7000070B5054698
:101080000C461648FFF7F6FE4FF6FF70FFF70AFF13
:101090002A460C211220FFF7F1FD1148FFF702FF4D
:1010A000F0222A210020FFF707FE0E48FFF7E2FE9C
:1010B0000D48FFF7F7FE0DA21221AA20FFF7DEFD73
:1010C000012322461221BC20FFF7BAFDBDE8704083
:1010D000122107A2C820FFF7D1BD00001400002094
:1010E0004040400020000020A3A3A30050000000C7
:1010F0002F3400002DE9F04105461E4617460C46E8
:101100000B48FFF7B7FE3046FFF7CCFE2A463946BC
:101110001420FFF7B3FD07A239469620FFF7AEFD76
:1011200022463946BDE8F0410223AF20FFF788BDD3
:10113000140000203A0000007CB50C4613A10546BF
:10114000D1E90001CDE9000104F131018DF806106B
:10115000A01CC1B26846FFF791FF6FF07F434B229E
:10116000611C0CA0FFF7C6FF28197D21007900F053
:1011700023F80B48FFF77EFE0A48FFF793FE0AA20A
:10118000D7210C20FFF77AFD7CBD00004D6F7573F1
:10119000652031004D6F75736520494400000000E3
:1011A00020000020A3A3A3004B45593A206E657888
:1011B000742070616765000070B504460D461848DC
:1011C000FFF758FE6FF07F40FFF76CFE15A229462F
:1011D0001420FFF753FD012C14D0022C14D0032C43
:1011E00014D01248FFF75EFE012C11D0022C11D052
:1011F000032C12D00EA22A35A9B2BDE870401420EB
:10120000FFF73CBD0C48EDE70C48EBE70C48E9E77D
:101210000C4AF0E70B4A0C32EDE70A4A1C32EAE7C7
:10122000140000205374617475733A00A3A3A300E3
:10123000556E6B6E6F776E0080FF8000FF808000C0
:101240008080FF00BC12000810B50446012114A0E4
:10125000FFF714FF21786FF07F43372214A0FFF7C8
:1012600049FF6178144B5A2214A0FFF743FFA1787D
:10127000144B7D2214A0FFF73DFFE178154BA0220F
:1012800015A0FFF737FF1648FFF7F4FD1548FFF7E5
:1012900009FED721BDE81040134A0C20FFF7EEBC31
:1012A0004D6F757365204D6F6E69746F720000002D
:1012B000546F74616C00000080FF800045617469A8
:1012C0006E670000FF808000536C656570696E6713
:1012D000000000008080FF0052756E6E696E67002E
:1012E00020000020A3A3A300A811000870477047A6
:1012F000044A0029116801D0014300E081431160D4
:101300007047000030380240044A0029116801D0BB
:10131000014300E081431160704700004038024003
:10132000044A0029116801D0014300E081431160A3
:10133000704700004438024070B5204A1168204CC4
:1013400011F00C0104D06610042903D0082903D041
:1013500004601BE0066019E01849091F0B68C3F31D
:1013600080550B6803F03F0315B1B6FBF3F301E0C2
:10137000B4FBF3F30C680968C4F388146343C1F346
:101380000141491C4900B3FBF1F1016011680F23D1
:1013900003EA11110B4B5C5C0168E1404160146889
:1013A000072505EA94241C5D21FA04F48460126880
:1013B00005EA52329A5CD140C16070BD08380240E3
:1013C0000024F400480000200029018802D041F0E8
:1013D000400101E021F040010180704730B50288F2
:1013E0004C8802F441530A88CD8822438C882C43D0
:1013F00022430C8922434C8922438C892243CC8985
:1014000022431A430280828B22F400628283098A7B
:10141000018230BD10B5FFF76FFCFFF7C3FC05205C
:10142000FFF798FB6D484FF4006404803620FFF707
:10143000CBFD0020FFF7F8FD3A20FFF7C5FD0520A2
:10144000FFF7F2FDB220FFF7BFFD0C20FFF7ECFD28
:101450000C20FFF7E9FD0020FFF7E6FD3320FFF742
:10146000E3FD3320FFF7E0FDB720FFF7ADFD3520AA
:10147000FFF7DAFDBB20FFF7A7FD1920FFF7D4FD2A
:10148000C020FFF7A1FD2C20FFF7CEFDC220FFF703
:101490009BFD0120FFF7C8FDC320FFF795FD12203B
:1014A000FFF7C2FDC420FFF78FFD2020FFF7BCFD32
:1014B000C620FFF789FD0F20FFF7B6FDD020FFF70C
:1014C00083FDA420FFF7B0FDA120FFF7ADFDE020D4
:1014D000FFF77AFDD020FFF7A7FD0420FFF7A4FD5A
:1014E0000D20FFF7A1FD1120FFF79EFD1320FFF750
:1014F0009BFD2B20FFF798FD3F20FFF795FD542023
:10150000FFF792FD4C20FFF78FFD1820FFF78CFDB1
:101510000D20FFF789FD0B20FFF786FD1F20FFF749
:1015200083FD2320FFF780FDE120FFF74DFDD02054
:10153000FFF77AFD0420FFF777FD0C20FFF774FD1D
:101540001120FFF771FD1320FFF76EFD2C20FFF730
:101550006BFD3F20FFF768FD4420FFF765FD51203C
:10156000FFF762FD2F20FFF75FFD1F20FFF75CFDF7
:101570001F20FFF759FD2020FFF756FD2320FFF71E
:1015800053FD2120FFF720FD1120FFF71DFD7820DE
:10159000FFF7E0FA2920FFF717FD11480188090637
:1015A000FCD40E48801E04800220FFF78DFC002032
:1015B000FFF766FC6FF07F40FFF774FCFFF780FADF
:1015C0000949084808600949002008720348BDE835
:1015D00010404FF400511A38FFF722B91A0C02409C
:1015E000083C0040140000202C000020F8080020D7
:1015F000704700000CB500202749019000900A6850
:1016000042F480320A604FF4A0430A6802F40032C8
:101610000092019A521C0192009A12B9019A9A42C0
:10162000F3D10A68920334D5012000901A48403063
:10163000026842F0805202601848026842F4404258
:1016400002601548083002680260026842F40042F5
:101650000260026842F4A0520260031F104A1A603E
:101660000A6842F080720A600A689201FCD50D4A4D
:1016700040F205711160016821F003010160016809
:1016800041F0020101600168C1F381010229FAD130
:101690000CBD00900CBD00000038024000700040FE
:1016A00008544007003C024000F02EB8124810B524
:1016B000016841F4700101601048016841F00101C6
:1016C00001600E4A00210832116002680C4B1A407A
:1016D0000260031D0B4A1A60026822F48022026035
:1016E00006480C300160FFF785FF03494FF00060AA
:1016F0008039086010BD000088ED00E0003802402D
:10170000FFFFF6FE1030002403480168002902D0D4
:101710000168491E016070470C000020FFF760B9A6
:101720000A0A01219140C94301807047002981893B
:1017300002D041F4005101E021F400518181704751
:101740001CB501210846FFF7D3FD02208DF80400E7
:1017500000208DF8060001218DF807108DF8050096
:1017600048020B4C009069462046FEF7EFFF20151B
:10177000009069462046FEF7E9FF0722092120462E
:10178000FFF735F807220A212046FFF730F81CBD85
:101790000000024030B501F01F0201240025C1F312
:1017A000421304FA02F2012B0FD0022B0FD0838ACE
:1017B0004FEA11210088134204FA01F400EA040000
:1017C00001D000B10125284630BD8389F0E7038AA6
:1017D000EEE710B5C1F3421301F01F040121A1404F
:1017E000012B07D0022B07D01430002A026805D045
:1017F0000A4304E00C30F8E71030F6E78A43026051
:1018000010BD00007FB50446008A0D4620F440510B
:10181000E88808432082A08941F20C618843A988A6
:101820002A8911436A8902431143A181A08A20F4C5
:101830004071A8890843A0826846FFF77DFD1A48D9
:10184000844202D01948844201D1039800E00298F2
:10185000A189090400EBC00101EB0010296801D542
:10186000490000E08900B0FBF1F26420B2FBF0F126
:1018700009010B096FF018056B4302EB8302A38982
:101880001D044FF0320306D503EBC202B2FBF0F0A9
:1018900000F0070005E003EB0212B2FBF0F000F0ED
:1018A0000F00084320817FBD00100140001401405B
:1018B0008088C0F308007047FEE700001FB50121D3
:1018C0001020FFF72DFDFFF73BFF4FF4E1300090B4
:1018D0000020ADF80800ADF804000C210C4CADF868
:1018E0000600ADF80A10ADF80C0069462046FFF777
:1018F00089FF012240F225512046FFF76AFF054982
:101900002020C1F8000101212046FFF70FFF1FBD75
:101910000010014004E000E00FB4084B10B504A92A
:1019200002AA039800F0DEF8044602A9002000F0A5
:101930005CFC204610BC5DF814FB0000EB210008A5
:1019400002E008C8121F08C1002AFAD17047704788
:10195000002001E001C1121F002AFBD170470000E6
:101960002DE9FF5F82B00021DDE90430020DDDF8D2
:1019700040B0034318D044F61050A2F2FF32424365
:101980001514119801281FD0A5EB0B00401C5FEA2D
:10199000000A4FF000064E4FDFF83891B04650462F
:1019A00015D5CAF1000413E0119801244AA30128B7
:1019B00001D16FEA0B010298119AC0E90031C0E928
:1019C000024206B0BDE8F09FCBF10000DFE704461D
:1019D0000021404A491842EB0450CDE9001012E0C2
:1019E000E00707D032463B4640464946FEF7D8FC62
:1019F0008046894632463B4610461946FEF7D0FCE3
:101A000006460F466410002CEAD1DDE90401DDE949
:101A10000023BAF1000F06DAFEF7C2FC42464B463D
:101A2000FEF7BEFC05E0FEF72DFD42464B46FEF7F5
:101A300029FD04460E460022284BFEF7ABFD03D8D5
:101A40004FF0FF30014607E00022254B204631468B
:101A5000FEF7FFFBFEF785FD102409E0002C0ADBF2
:101A60000A220023FEF7C4FB039B30321A55641E82
:101A700050EA0102F2D1641C039AC4F11103144428
:101A8000119A012A03D0012208430DD10AE008432C
:101A900004D000204FF0110B119072E7A3EB0B055F
:101AA0006D1E0DE05B4504DD4FF0000205F1010500
:101AB00004E003DA4FF00002A5F10105002AECD0A2
:101AC00002981199C0E90231C0E9004579E70000A8
:101AD000000014400000F03F300000000000F04320
:101AE0000000E03F2DE9FF4F95B09A468846064634
:101AF0000025EEE1252877D100242746F94A012167
:101B0000039400E0044316F8013F203B01FA03F080
:101B10001042F7D130782A2811D06FF02F03307897
:101B2000A0F13002092A16D8039A44F0020402EB0D
:101B3000820203EB42021044761C0390EFE758F850
:101B4000042B0392002A03DA504244F40054039019
:101B500044F00204761C30782E2816D116F8010FB6
:101B600044F004042A280DD06FF02F023078A0F141
:101B70003003092B09D807EB870302EB4303C7188F
:101B8000761CF3E758F8047B761C30786C280FD06D
:101B900006DC4C2817D068280DD06A2814D104E040
:101BA000742810D07A280FD10DE044F400140AE014
:101BB00044F4801401E044F440147278824202D16B
:101BC00004F58014761C761C307866280BD013DC64
:101BD000582877D009DC002875D04528F6D046284B
:101BE000F4D047281AD193E118E0632835D064284F
:101BF00079D0652812D18BE1702873D008DC672872
:101C0000F1D069286FD06E280DD06F2806D1ACE0D6
:101C100073282CD0752874D0782853D05246179941
:101C200090476D1C54E1C4F30250022809D00328E8
:101C30000DD0D8F8001004280DD00D6008F104086C
:101C400046E1D8F80010EA17C1E90052F6E7D8F8E3
:101C500000100D80F2E70D70F0E718F8041B8DF806
:101C6000001000208DF80100EB46012003E058F839
:101C700004BB4FF0FF3061074FF0000102D40DE0CC
:101C800009F101018946B9420FDA8145F8DB1BF8F9
:101C900009100029F4D108E009F1010189468142C7
:101CA000FADB1BF809100029F6D103985346A0EB84
:101CB000090721463846179A00F080FA284400EBBD
:101CC000090507E044E008E10DE01BF8010B52466E
:101CD00017999047B9F10109F7D253462146384682
:101CE000179AF2E039E00A21C4F302524FF0000BD8
:101CF0000091022A06D058F8040BC117032A09D014
:101D00000AE023E008F1070020F00702F2E80201F0
:101D1000904605E000B2C117042A01D140B2C117B4
:101D2000002906DA0A460021404261EB02012D2219
:101D300002E0220504D52B228DF80420012203E0C5
:101D4000E20701D02022F7E7914657E00A2100E0A0
:101D500010214FF0000B00910BE010214FF0000B11
:101D600044F004040827009103E008204FF0000B22
:101D70000090C4F30252022A05D058F8040B002147
:101D8000032A08D008E008F1070020F00702F2E873
:101D90000201904603E080B2042A00D1C0B24FF0A5
:101DA000000922072AD53278702A07D0DDF800C052
:101DB0008CF0100C5CEA0B0C05D00EE040228DF884
:101DC0000420012208E050EA010306D030238DF8F8
:101DD00004308DF8052002229146009B83F0080311
:101DE00053EA0B030AD150EA010201D1620705D57B
:101DF00030228DF804204FF001097F1E3278582AD6
:101E000004D039A20C920CAA02920BE03BA2F9E793
:101E10005B46009AFEF7ECF90C9B9B5C029A521E03
:101E20000292137050EA0102F2D1029804A9081A32
:101E300000F1200B600702D524F4803400E0012774
:101E40005F4502DDA7EB0B0000E0002000EB0B017B
:101E5000009003984944401A0390E00306D4534687
:101E60002146179A039800F0A9F90544002706E0D7
:101E700001A85246C05D179990476D1C7F1C4F45C5
:101E8000F6DBE0030CD553462146179A039800F081
:101E900095F9054404E030205246179990476D1C8F
:101EA0000099481E00900029F5DC08E0029802998C
:101EB00052460078491C0291179990476D1CBBF15E
:101EC0000001ABF1010BF1DC5BE100F065F90544C9
:101ED000761C307800287FF40DAE19B02846BDE896
:101EE000F08F0000092801003031323334353637A5
:101EF0003839616263646566000000003031323356
:101F000034353637383941424344454600000000F5
:101F1000600700D4062708F1070020F00700F0E86A
:101F20000223804603F0004C5FEA0C0001D097A02A
:101F300009E0200501D596A005E0E00701D095A0B5
:101F400001E0AFF24C001390307823F00043652895
:101F50000CD006DC452809D046281DD047287FD163
:101F60003BE0662818D067287AD136E00021112F8F
:101F700001DB112000E0781CCDE9000104A90CA8C8
:101F8000FFF7EEFCDDE90D010C9A4FF0000B07F1B5
:101F90000109109200914EE04FF000400097CDE90A
:101FA000011004A90CA8FFF7DBFCDDE90D020C9B76
:101FB0000F994FF0000B91461093009211B9791CC4
:101FC00000EB0109B7EB090003D4C0F1FF3B07F1B7
:101FD0000109A9EB0700019042E0012F00DA012777
:101FE0000021112F01DD112000E03846CDE900016C
:101FF00004A90CA8FFF7B4FCDDE90D010C9A0091CF
:102000004FF0000BB946109221070FD4009A4A45B1
:1020100003DA914601E0A9F10109B9F1010F05DDEB
:10202000109AA9F10101515C3029F4D0B84202DACA
:1020300010F1040F03DA0121CDE9011010E00028AE
:1020400003DC8344A9EB000102E0411C494500DDAB
:102050008946A0EB0B00401C01904FF0004002901D
:10206000200705D40198484502DB4FF0FF3001906E
:1020700000208DF84B0002980DF14B07B0F1004F96
:1020800025D002200C902B200D90029800280CDA0D
:10209000404202902D200D9007E00A210298FEF7A1
:1020A00091F83031029007F8011D0C99481E0C90F0
:1020B0000029F2DC02980028EFD1791E0D980870F3
:1020C000307800F0200040F0450007F8020D11A81C
:1020D000C01BC01D02901398007800B1012000EBD6
:1020E0000901019801EBE071029801440398401A3C
:1020F000401E0390E00306D453462146179A0398E6
:1021000000F05CF805441398007818B1524617990E
:1021100090476D1CE00323D553462146179A039838
:1021200000F04CF805441BE0BBF1000F07DB009802
:10213000584504DD1098179910F80B0001E0179925
:1021400030205246904701980BF1010B401E05F1DB
:102150000105019004D12E205246179990476D1C1D
:10216000B9F10001A9F10109DEDC05E017F8010B66
:102170005246179990476D1C0299481E02900029FB
:10218000F4DC53462146179A03989EE62D00000082
:102190002B000000200000002DE9F041044600253E
:1021A0001E461746880404D405E039462020B0476F
:1021B0006D1C641EF9D52846BDE8F0812DE9F0417B
:1021C000044600251E469046C80301D5302700E08E
:1021D0002027880404D505E041463846B0476D1CE9
:1021E000641EF9D52846BDE8F0810A68531C0B60CF
:1021F0001070704794B0FEF787FAFEF71FFFFEF7E6
:102200002BFCFFF75BFBFFF705F90220FEF75CFEF6
:102210000020FEF735FEFEF753FC1C4C4FF0010882
:10222000002650216846FEF7BBFB38B117496846C7
:10223000891CFEF71DFB08B184F80180FEF722FC23
:10224000012815D060780028EBD0104F2578BF1CEE
:102250000020FEF715FEFEF733FC0120FEF778FEA6
:1022600085B16D1EE9B23846FEF766FF6670D8E7A5
:102270002078401CC0B22070042800D3267084F857
:102280000180E2E73846FEF7DFFFEFE700000020BD
:10229000000000000000000000000000000000003E
:1022A000000000000000000000000000000000002E
:1022B000000000000000000000000000000000001E
:1022C000000000000000000060006000600060008E
:1022D000600060006000400020002000200000003E
:1022E00000000000600060006000000000000000CE
:1022F000000000006006600630039801880044007A
:1023000000000000000000000000000000000000CD
:1023100000000000000000000000000000000000BD
:102320000000000000000000100210021002100265
:10233000FE07FE0708020801080108010801FE0760
:10234000FE07040104010401040100000000000074
:1023500000000000000040004000F00158034C0362
:10236000CC034C0058007000E000C001C0014003E5
:102370004C035C034C034801F000400040000000A7
:1023800000000000000000000E010A019100910011
:102390009100510051003A00AE03A00250045004D5
:1023A000480448044804840284030000000000003C
:1023B000000000000000000038006C006C006C00A1
:1023C0006C006C002C0098071C011A0133013301CA
:1023D0006301E300C308C6093C07000000000000D9
:1023E000000000000C001C00100010000800040099
:1023F00000000000000000000000000000000000DD
:1024000000000000000000000000000000000000CC
:102410000000000000040002000180008000400075
:10242000400020002000200020002000200020008C
:102430004000400080008000000100020004000015
:10244000000000000200040008001000100020003E
:10245000200040004000400040004000400040009C
:1024600020002000100010000800040002000000FE
:102470000000000000000000000000004000C0005C
:102480004000460C4E0FD001F0015E0F460C40009C
:1024900040004000000000000000000000000000BC
:1024A00000000000000000000000000000004000EC
:1024B0004000400040004000FE0F4000400040004F
:1024C000400040000000000000000000000000008C
:1024D00000000000000000000000000000000000FC
:1024E00000000000000000000000000000000000EC
:1024F000000000000C001C00100010000800040088
:1025000000000000000000000000000000000000CB
:102510000000000000000000FE07000000000000B6
:1025200000000000000000000000000000000000AB
:10253000000000000000000000000000000000009B
:10254000000000000000000000000000000000008B
:10255000000000001C001C001C0000000000000027
:10256000000000000004000600020003000100015A
:10257000800080004000400060002000200010002B
:102580001000080008000C00040006000200000013
:1025900000000000000000000000F00098010C03A3
:1025A0000C030606060606060606060606060606C8
:1025B00006060C030C039801F00000000000000068
:1025C0000000000000000000000040007C006000EF
:1025D00060006000600060006000600060006000FB
:1025E0006000600060006000FC030000000000006C
:1025F00000000000000000000000F8008401020359
:1026000006030603000300018001C00060002000F3
:102610001000080204020602FE0300000000000091
:10262000000000000000000000007800C6008601E5
:10263000860180018001C00070008001000100035C
:102640000003060306038601F800000000000000F6
:102650000000000000000000000080018001C001B7
:10266000A001A00190018801880184018201FE0F70
:102670008001800180018001E0070000000000006F
:1026800000000000000000000000FC030400040043
:10269000040004000400F4008C01040300030003A0
:1026A0000603060382018401F80000000000000018
:1026B00000000000000000000000E00118030C030F
:1026C0000C0004000600E60116030E0606060606C8
:1026D000060604060C021803F000000000000000CB
:1026E00000000000000000000000F8070C060402D3
:1026F0000401000100018000800040004000400013
:1027000060006000600060006000000000000000E9
:1027100000000000000000000000F8010C030606A5
:10272000060606060C021C03F000C8010C03060690
:102730000606060606060C03F00100000000000075
:1027400000000000000000000000F0000C010C037D
:10275000060206060606060606078C06780600062A
:10276000000300030C018C01780000000000000051
:102770000000000000000000000000000000000059
:1027800000000000E000E000E000000000000000A9
:1027900000000000E000E000E00000000000000099
:1027A0000000000000000000000000000000000029
:1027B0000000000060006000000000000000000059
:1027C00000000000000060006000400020002000C9
:1027D0000000000000000000000400020001800072
:1027E0004000200010000800040008001000200035
:1027F0004000800000010002000400000000000012
:1028000000000000000000000000000000000000C8
:1028100000000000FE07000000000000FE070000AE
:1028200000000000000000000000000000000000A8
:10283000000000000000000004000800100020005C
:10284000400080000001000200040002000180003E
:1028500040002000100008000400000000000000FC
:1028600000000000000000000000E0031806040C57
:10287000040C0C0C0C0C00078001400040004000D0
:1028800000000000E000E000E000000000000000A8
:102890000000000000000000E00018030C02CC055E
:1028A00064056605A605B604B604B604B604B60209
:1028B000E4010C040C021803F0000000000000000A
:1028C00000000000000000000000600060005000F8
:1028D000D00090009000880088010801F8010403EE
:1028E00004030402020202060F0F000000000000B1
:1028F00000000000000000000000FE008C030C033C
:102900000C030C030C038C01FC000C030C020C06E2
:102910000C060C060C060C03FE0100000000000073
:1029200000000000000000000000E00318030C0697
:102930000C0404040600060006000600060006005B
:1029400006040C040C021803F00000000000000054
:10295000000000000000000000007F008C010C035C
:102960000C030C060C060C060C060C060C060C06DA
:102970000C060C030C038C017F000000000000001B
:1029800000000000000000000000FF030603060432
:102990000604060086008600FE008600860086008B
:1029A0000600060406040602FF0300000000000003
:1029B00000000000000000000000FF030603060402
:1029C0000604060086008600FE008600860086005B
:1029D00006000600060006001F00000000000000C0
:1029E00000000000000000000000F00018010C02D0
:1029F0000C0204020600060006000600C60F0603CD
:102A000006030C030C031803F00000000000000094
:102A1000000000000000000000000F0F0606060680
:102A20000606060606060606FE070606060606064D
:102A300006060606060606060F0F00000000000048
:102A400000000000000000000000FC0360006000C7
:102A50006000600060006000600060006000600076
:102A60006000600060006000FC03000000000000E7
:102A700000000000000000000000F807C000C000D7
:102A8000C000C000C000C000C000C000C000C00046
:102A9000C000C000C000C000C000C60066003C000E
:102AA00000000000000000000000CF038601C60007
:102AB00046002600160036002E006E004600C600B6
:102AC00086008601060106038F0700000000000053
:102AD000000000000000000000001F0006000600CB
:102AE00006000600060006000600060006000600B6
:102AF0000600060406040602FF03000000000000B2
:102B000000000000000000000000070786038603A5
:102B10008E038E034E034E034A035A035A033A03AD
:102B20003203320332031203870700000000000063
:102B3000000000000000000000008E0F0C021C02CC
:102B40001C0234023402640264024402C40284029D
:102B500084038403040304031F0200000000000038
:102B600000000000000000000000F00098010C03CD
:102B70000C020606060606060606060606060606F3
:102B800006060C020C039801F00000000000000093
:102B900000000000000000000000FF000603060621
:102BA00006060606060606068603FE000600060062
:102BB00006000600060006001F00000000000000DE
:102BC00000000000000000000000F00098010C036D
:102BD0000C02060606060606060606060606060693
:102BE00076064C02CC039801F00080070003000039
:102BF00000000000000000000000FF0106030606C0
:102C00000606060606060603FE004600C600860007
:102C100086010603060306060F0E000000000000F2
:102C200000000000000000000000F8020C03060293
:102C3000060206000E003C00F800E00380030007D7
:102C40000206020606060C03F00100000000000068
:102C500000000000000000000000FE0762046108A0
:102C6000610860006000600060006000600060005B
:102C70006000600060006000F801000000000000DB
:102C8000000000000000000000001E070C020C0203
:102C90000C020C020C020C020C020C020C020C02C4
:102CA0000C020C020C021801F000000000000000F1
:102CB000000000000000000000000F0706020401F1
:102CC00004010C010C018800880098009800500055
:102CD00050007000300020002000000000000000C4
:102CE00000000000000000000000F70E6204420433
:102CF0004604460464026402E402E4029C029C016D
:102D000098019801880188008800000000000000F8
:102D1000000000000000000000009E070C010801F8
:102D200018019000B0006000200060006000D0003A
:102D300090008801080104038E07000000000000D5
:102D4000000000000000000000000F0F0604040255
:102D50000C0208011801B800B000700060006000AB
:102D60006000600060006000F801000000000000EA
:102D700000000000000000000000FC070C02060339
:102D8000020180018000400040002000200010006F
:102D9000180008040C040402FE03000000000000F8
:102DA00000000000E00320002000200020002000A0
:102DB0002000200020002000200020002000200013
:102DC000200020002000200020002000E003000060
:102DD00000000000000000000400040008000800DB
:102DE0001000100010002000200040004000C00033
:102DF00080008000000100010002000200020004C7
:102E0000000000007C004000400040004000400006
:102E100040004000400040004000400040004000B2
:102E20004000400040004000400040007C000000A6
:102E30000000600090000801000000000000000099
:102E40000000000000000000000000000000000082
:102E50000000000000000000000000000000000072
:102E60000000000000000000000000000000000062
:102E70000000000000000000000000000000000052
:102E80000000000000000000000000000000FF0F34
:102E900000000000180060000000000000000000BA
:102EA0000000000000000000000000000000000022
:102EB0000000000000000000000000000000000012
:102EC0000000000000000000000000000000000002
:102ED00000000000F0010C030C030003E0031C03DE
:102EE0000E03060306038E0B7C0E0000000000009C
:102EF000000000000000000008000E000C000C00A4
:102F00000C000C00CC013C031C060C060C060C0645
:102F10000C060C060C021C03E4010000000000007B
:102F200000000000000000000000000000000000A1
:102F300000000000F0008C018C01860106000600F4
:102F4000060006020C020C01F00000000000000068
:102F500000000000000000000002C00300030003A6
:102F60000003000378038C030C0306030603060327
:102F70000603060304038C0778010000000000002C
:102F80000000000000000000000000000000000041
:102F900000000000E001180308020C060C06FC0704
:102FA0000C000C0018041802E001000000000000F2
:102FB00000000000000000000000C00360063006B2
:102FC00030003000FE0130003000300030003000B2
:102FD0003000300030003000FC0100000000000034
:102FE00000000000000000000000000000000000E1
:102FF00000000000F007D8068C018C018C019801BC
:10300000F8000C00FC00CC03060306038E03F80056
:10301000000000000000000008000E000C000C0082
:103020000C000C00EC011C030C030C030C030C0340
:103030000C030C030C030C039E07000000000000AF
:1030400000000000000000000000600060000000C0
:10305000000040007C0060006000600060006000D4
:103060006000600060006000FC03000000000000E1
:1030700000000000000000000000C001C0010000CE
:1030800000000001F00180018001800180018001C9
:10309000800180018001800180018001CC007C00E2
:1030A000000000000000000008000E000C000C00F2
:1030B0000C000C008C038C008C004C006C005C003D
:1030C0008C008C010C010C039E0700000000000026
:1030D000000000000000000040007C006000600074
:1030E00060006000600060006000600060006000E0
:1030F0006000600060006000FC0300000000000051
:1031000000000000000000000000000000000000BF
:10311000000000003707EE066606660666066606CD
:103120006606660666066606FF0F000000000000E1
:10313000000000000000000000000000000000008F
:1031400000000000EE011C030C030C030C030C0335
:103150000C030C030C030C039E070000000000008E
:10316000000000000000000000000000000000005F
:1031700000000000F00098010C0306060606060693
:10318000060606060C030C03F00000000000000019
:10319000000000000000000000000000000000002F
:1031A00000000000EE011C030C060C060C060C06C9
:1031B0000C060C060C031C03EC010C000C003E007A
:1031C00000000000000000000000000000000000FF
:1031D0000000000078028C030C03060306030603BC
:1031E0000603060304038C03780300030003C007EF
:1031F00000000000000000000000000000000000CF
:10320000000000009F035806380618001800180038
:103210001800180018001800FF000000000000004F
:10322000000000000000000000000000000000009E
:1032300000000000F0031C030C020C023800F00038
:10324000C003040304038C03FC0100000000000021
:10325000000000000000000000000000200020002E
:1032600030003000FE01300030003000300030000F
:103270003000300030023002E001000000000000A9
:10328000000000000000000000000000000000003E
:10329000000008028E030C030C030C030C030C0348
:1032A0000C030C030C039C077801000000000000D5
:1032B000000000000000000000000000000000000E
:1032C000000000001E070C02080108011801900010
:1032D000B000B000600060002000000000000000AE
:1032E00000000000000000000000000000000000DE
:1032F00000000000F70E6204460464026402EC025F
:103300009C0198019801980108000000000000004D
:1033100000000000000000000000000000000000AD
:1033200000000000BC0718011001B0006000600040
:10333000E0009000080108039E0700000000000064
:10334000000000000000000000000000000000007D
:10335000000000009E07080108010801900090008D
:10336000B0006000600060002000200024001C000D
:10337000000000000000000000000000000000004D
:1033800000000000FC018401C40044006000200033
:103390003000180208020C03FC01000000000000CD
:1033A000000000000003800080008000800080009A
:1033B00080008000800040002000400080008000ED
:1033C00080008000800080008000800000030000FA
:1033D00040004000400040004000400040004000ED
:1033E00040004000400040004000400040004000DD
:1033F00040004000400040004000400040004000CD
:10340000000000000C001000100010001000100060
:1034100010001000100020004000200010001000DC
:103420001000100010001000100010000C00000030
:1034300000001C002204C204800300000000000001
:10344000000000000000000000000000000000007C
:10345000000000000000000000000000000000006C
:10346000000000000000000000000000000000005C
:1034700000000008080808080808000018180000E4
:1034800000486C2412000000000000000000000052
:103490000000002424247F1212127F121212000056
:1034A0000000081C2A2A0A0C1828282A2A1C0808A6
:1034B00000000022251515152A58545454220000E6
:1034C0000000000C1212120A76252911916E0000DC
:1034D00000060604030000000000000000000000D9
:1034E00000402010100808080808081010204000AC
:1034F0000002040808101010101010080804020040
:103500000000000008086B1C1C6B0808000000008D
:1035100000000000080808087F08080808000000EC
:103520000000000000000000000000000606040388
:103530000000000000000000FE000000000000008D
:10354000000000000000000000000000060600006F
:1035500000008040402020101008080404020200EF
:103560000000001824424242424242422418000015
:10357000000000080E08080808080808083E0000B7
:103580000000003C4242422020100804427E00001D
:103590000000003C4242201820404042221C000013
:1035A000000000203028242422227E2020780000E1
:1035B0000000007E0202021A26404042221C000047
:1035C000000000382402021A264242422418000059
:1035D0000000007E222210100808080808080000D9
:1035E0000000003C4242422418244242423C000077
:1035F000000000182442424264584040241C00004D
:10360000000000000000181800000000181800005A
:10361000000000000000000800000000000808048E
:1036200000000040201008040204081020400000A0
:103630000000000000007F0000007F00000000008C
:1036400000000002040810204020100804020000BE
:103650000000003C424246402010100018180000B4
:103660000000001C225A555555552D42221C0000C1
:103670000000000808181414243C224242E700000D
:103680000000001F2222221E22424242221F00006E
:103690000000007C4242010101010142221C0000A5
:1036A0000000001F2242424242424242221F0000CA
:1036B0000000003F4212121E12120242423F00005E
:1036C0000000003F4212121E121202020207000006
:1036D0000000003C2222010101712122221C000075
:1036E000000000E7424242427E42424242E700007E
:1036F0000000003E0808080808080808083E000006
:103700000000007C10101010101010101010110F7D
:103710000000007722120A0E0A12122222770000FD
:10372000000000070202020202020202427F0000C1
:1037300000000077363636362A2A2A2A2A6B0000FD
:10374000000000E346464A4A525252626247000075
:103750000000001C2241414141414141221C000026
:103760000000003F424242423E02020202070000C5
:103770000000001C2241414141414D53321C600078
:103780000000003F4242423E1212222242C7000085
:103790000000007C4242020418204042423E0000E9
:1037A0000000007F4908080808080808081C0000F5
:1037B000000000E74242424242424242423C000094
:1037C000000000E7424222242414141808080000D4
:1037D0000000006B49494949555536222222000014
:1037E000000000E7422424181818242442E70000AF
:1037F000000000772222141408080808081C0000A2
:103800000000007E2120101008040442423F000006
:103810000078080808080808080808080808780058
:103820000000020204040808081010202020404074
:10383000001E1010101010101010101010101E008C
:1038400000384400000000000000000000000000FC
:10385000000000000000000000000000000000FF69
:10386000000608000000000000000000000000004A
:10387000000000000000003C4278444242FC00008E
:10388000000000030202021A26424242261A0000E9
:10389000000000000000003844020202443800002A
:1038A00000000060404040784442424264D800003A
:1038B000000000000000003C427E0202423C00008A
:1038C000000000F08808087E08080808083E00008C
:1038D000000000000000007C22221C023C42423C0E
:1038E000000000030202023A4642424242E7000060
:1038F0000000000C0C00000E08080808083E00003C
:103900000000003030000038202020202020221E1F
:103910000000000302020272120A1612227700004F
:103920000000000E0808080808080808083E000003
:10393000000000000000007F9292929292B7000077
:10394000000000000000003B4642424242E7000007
:10395000000000000000003C42424242423C0000A5
:10396000000000000000001B26424242221E020707
:10397000000000000000007844424242447840E0E9
:1039800000000000000000774C040404041F000045
:10399000000000000000007C42023C40423E00006B
:1039A000000000000008083E080808080830000071
:1039B00000000000000000634242424262DC00005E
:1039C00000000000000000E7422424140808000062
:1039D00000000000000000EB49495555222200007C
:1039E000000000000000007624181818246E000063
:1039F00000000000000000E7422424141808080713
:103A0000000000000000007E22100808447E000034
:103A100000C0202020202010202020202020C000B6
:103A20001010101010101010101010101010101096
:103A30000006080808080810080808080808060012
:103A40000C32C20000000000000000000000000076
:103A5000703A0008000000205800000040190008DB
:103A6000C83A000858000020B00C000050190008A7
:103A70000001000000000000000000000000000045
:103A800000000000902200080C0018003000000028
:103A90006034000808001000100000000000000062
:103AA00000000000007A030A00000000000000008F
:103AB00001020304060708090000000001020304D4
:083AC0000102030406070809D6
:040000050800018965
:00000001FF
